:10000000707B0020ED830100A3AC0200D9830100C6
:10001000D9830100D9830100D9830100D98301006C
:10002000000000000000000000000000AD8501009D
:10003000D9830100000000006D850100D983010013
:100040002D8701002D8701002D8701002D870100DC
:100050002D8701002D8701002D8701002D870100CC
:100060002D8701002D8701002D8701002D870100BC
:100070002D8701002D8701002D8701002D870100AC
:100250002D870100C3DF02002D8701002D870100DB
:100260002D8701002D8701000DE002002D87010080
:100270002D8701002D8701002D8701002D870100AA
:100280002D8701002D8701002D8701002D8701009A
:100290002D8701002D8701002D8701002D8701008A
:1002A0002D8701002D8701002D8701002D8701007A
:1002B0002D8701002D8701002D8701002D8701006A
:1002C0002D8701002D8701002D8701002D8701005A
:1002D0002D8701002D8701002D8701002D8701004A
:1002E0002D8701002D8701002D8701002D8701003A
:1002F0002D8701002D8701002D8701002D8701002A
:100300002D8701002D8701002D8701002D87010019
:100310002D8701002D8701002D8701002D87010009
:100320002D8701002D8701002D8701002D870100F9
:100330002D8701002D8701002D8701002D870100E9
:100340002D8701002D8701002D8701002D870100D9
:100350002D8701002D8701002D8701002D870100C9
:100360002D8701002D8701002D8701002D870100B9
:100370002D8701002D8701002D8701002D870100A9
:100380002D8701002D8701002D8701002D87010099
:100390002D8701002D8701002D8701002D87010089
:1003A0002D8701002D8701002D8701002D87010079
:1003B0002D8701002D8701002D8701002D87010069
:1003C0002D8701002D8701002D8701002D87010059
:1003D0002D870100F7DF02002D8701002D87010026
:1003E0002D8701002D8701002D8701002D87010039
:1003F0002D8701002D8701002D8701002D87010029
:100400002D8701002D8701002D8701002D87010018
:100410002D8701002D8701002D8701002D87010008
:100420002D8701002D8701002D8701002D870100F8
:100430002D8701002D8701002D8701002D870100E8
:100440002D8701002D8701002D8701002D870100D8
:100450002D8701002D8701002D8701002D870100C8
:100460002D8701002D8701002D8701002D870100B8
:0C0470002D8701002D8701002D87010061
:04047C00FFFFFFFF80
:100480007BB972B90029BEBF00204FF0004106E0E1
:1004900008BF00281CBF6FF000414FF0FF3000F094
:1004A00057B8ADF1080C6DE904CE002909DB002B2B
:1004B0001ADB0DF019F8DDF804E0DDE9022304B0E1
:1004C0007047404261EB4101002B1BDB0DF00CF843
:1004D000DDF804E0DDE9022304B0404261EB4101B4
:1004E000524263EB43037047524263EB43030CF009
:1004F000FBFFDDF804E0DDE9022304B0404261EBDC
:1005000041017047524263EB43030CF0EDFFDDF80D
:1005100004E0DDE9022304B0524263EB4303704779
:1005200053B94AB9002908BF00281CBF4FF0FF315A
:100530004FF0FF3000F00CB8ADF1080C6DE904CEBF
:100540000CF0D2FFDDF804E0DDE9022304B07047CF
:10055000704700BF2DE9F00791E8F807B2E80210F4
:100560005B1854EB0C04B2E802104D4156EB0C063C
:10057000B2E802104F4158EB0C08B2E8021059EBF8
:1005800001095AEB0C0A80E8F80780410130BDE808
:10059000F00770472DE9F00791E8F807B2E802107C
:1005A0005B1A74EB0C04B2E802108D4176EB0C067A
:1005B000B2E802108F4178EB0C08B2E8021079EB38
:1005C00001097AEB0C0A80E8F80780414042BDE857
:1005D000F00770472DE9F007524290E87800B1E843
:1005E00080071740DB1918EA020854EB080419EADF
:1005F000020955EB09051AEA020A56EB0A0678C009
:1006000090E87800B1E8800717407B4118EA0208BB
:1006100054EB080419EA020955EB09051AEA020A23
:1006200056EB0A0678C080410130BDE8F0077047FC
:100630002DE9F007524290E87800B1E880071740B2
:10064000DB1B18EA020874EB080419EA020975EBCF
:1006500009051AEA020A76EB0A0678C090E87800E3
:10066000B1E880071740BB4118EA020874EB0804A0
:1006700019EA020975EB09051AEA020A76EB0A067D
:1006800078C080414042BDE8F00770472DE9F00195
:1006900052424FF0040890E8300091E8C000A31BDC
:1006A0001340E41AF618EB1B1340ED1AFF1830C084
:1006B000C0C1B8F10108EED1BDE8F001704700BF3C
:1006C00000B592E8DC072DE9DC07B1E8805702B4F9
:1006D000A7FB02510A95A8FB020BE7FB6310E9FB9D
:1006E00062B00B91A8FB0351EAFB6201E7FB64B522
:1006F000E7FB6605E8FB6615CDF830B0A9FB03B64D
:10070000EAFB6316ECFB6356E8FB640BE9FB641B36
:10071000EAFB645BECFB646B0D90ACFB0230059C68
:10072000EEFB6250E9FB6460EAFB64B0E7FB643116
:10073000E8FB6451069CE8FB6461E9FB64B1EAFBF9
:1007400064010E93A7FB0432079CE7FB6462E8FB9D
:1007500064B2E9FB6402EAFB6412049CE9FB6453A3
:10076000EAFB6463089CE7FB64B3E8FB6403E9FB12
:100770006413EAFB64230F955DF8049B99E8000677
:10078000DDF80080A9FB0854EAFB68B4DDF81080AE
:10079000ECFB6804EEFB6814E9FB6824EAFB6834B0
:1007A000DDF80480EEFB6865E9FB68B5EAFB6805E7
:1007B000DDF81480ECFB6815EEFB6825E9FB683575
:1007C000EAFB68450F96DDF80880AEFB0876E9FB8A
:1007D0006806EAFB6816DDF81880ECFB6826EEFB7D
:1007E0006836E9FB6846EAFB6856DDF80C80ECFBEE
:1007F00068B7EEFB6807E9FB6817EAFB6827DDF8D6
:100800001C80ECFB6837EEFB6847E9FB6857EAFBA6
:10081000686708B000BD00BF2DE9F14F87B0FFF752
:100820004FFFDDF81C8008F1200888E8FF00FFBCBE
:1008300087E87F08BDE8F08F00B591E89857A3FBE3
:1008400003520195A3FB0401E3FB6420E3FB671063
:100850000292A3FB0752E3FB6802E4FB6415E3FB8F
:100860006805E3FB69250391A4FB07B6E3FB692652
:10087000E3FB6A56E4FB670BE4FB682BE3FB6A5B74
:10088000E3FB6C6B0490A4FB0810E4FB6950E3FBF2
:100890006C60E3FB6EB0E7FB6721E4FB6951E4FBAE
:1008A0006A61E3FB6EB1E4FB6E010592A7FB0832BF
:1008B000E4FB6A62E4FB6CB2E4FB6E02E7FB6E12DF
:1008C000E7FB6853E7FB6963E4FB6CB3E7FB6C038E
:1008D000E7FB6E13E8FB6E230695A7FB0954E7FBC5
:1008E0006AB4E7FB6C04E8FB6C14E8FB6E24E9FBDC
:1008F0006E34E8FB6865E7FB6AB5E8FB6A05E8FB70
:100900006C15E9FB6C25E9FB6E35EAFB6E45079635
:10091000A8FB0976E8FB6A06E9FB6A16E9FB6C2688
:10092000EAFB6C36EAFB6E46ECFB6E56E8FB69B7F9
:10093000E9FB6907E9FB6A17EAFB6A27EAFB6C3700
:10094000ECFB6C47ECFB6E57EEFB6E6700BD00BF27
:100950002DE9F14F87B0FFF76FFFDDF81C8008F13C
:10096000200888E8FF00FFBC87E87F08BDE8F08F1B
:1009700030B44FF0000310F8014B11F8015B013A5D
:1009800084EA050443EA0403F5D1A3F101034FEA25
:10099000D37030BC704700BF4FF0000310F8012B3C
:1009A000013943EA0203F9D1A3F101034FEAD370FD
:1009B000704700BF30B411F8014B12F8015B6C4076
:1009C00000F8014B013BF6D130BC70472DE9F00730
:1009D00091E8F807B2E802105B1854EB0C04B2E897
:1009E00002104D4156EB0C06B2E802104F4158EB95
:1009F0000C08B2E8021059EB01095AEB0C0A8941C4
:100A0000B3F1FF3374F1FF3475F1FF3576F1000671
:100A100077F1000778F1000879F101097AF1FF3ADE
:100A200051F100015B184C414D4156F1000657F160
:100A3000000758F1000859EBD1795AEB010A80E818
:100A4000F807BDE8F00770472DE9F00791E8F807CF
:100A5000B2E802105B1A74EB0C04B2E802108D418C
:100A600076EB0C06B2E802108F4178EB0C08B2E886
:100A7000021079EB01097AEB0C0A89415B184C41B1
:100A80004D4156F1000657F1000758F1000859EBA7
:100A9000D1795AEB010A80E8F807BDE8F007704702
:100AA00018EB040859EB05095AEB060A5BEB070B38
:100AB0005FF0000C4CF1000C18EB050859EB06092F
:100AC0005AEB070A5BEB070B50EB0C005FF0000CD6
:100AD00051EB0C0152EB0C0263414CF1000CB8EBF2
:100AE000070879F100097AF1000A7BEB040BA841B1
:100AF000B141A241B3416CF1000CBBEB050BB0411D
:100B0000B941AA41BB416CF1000C4CF001068CF0DC
:100B1000020718EB060859EB6C095AEB6C0A7BEBE1
:100B20006C0B70EB6C0471EB6C0572EB670653EBAE
:100B30006C076CEB6C0C18EB0C0059EB0C015AEBCE
:100B40000C025BF1000354F1000455F1000556EB73
:100B5000DC7657EB0C0770472DE9F14F87B0FFF7B4
:100B6000AFFDDDF81080DDF81490DDF818A0FFF778
:100B700097FFBDE8000FFFF793FF03B05DF8048B0C
:100B800088E8FF00BDE8F08F2DE9F14F87B0FFF74F
:100B900053FEDDF81080DDF81490DDF818A0FFF7A3
:100BA0007FFFBDE8000FFFF77BFF03B05DF8048B0C
:100BB00088E8FF00BDE8F08F1FB50B4B01A901933A
:100BC0004FF4B873ADF8083008238DF80A308378F5
:100BD00003208DF80B30FF238DF80C3000F088FED9
:100BE00005B05DF804FB00BF191E01001FB50B4BDB
:100BF00001A901934FF44273ADF8083008238DF832
:100C00000A30437802208DF80B3000238DF80C3029
:100C100000F06EFE05B05DF804FB00BFE5220100A8
:100C20001FB572B6194B5D68E5B9BFF34F8F184910
:100C3000184BCA6802F4E0621343CB60BFF34F8FD6
:100C400000BFFDE7B4FBF6F4D3B20132002CF9D1BA
:100C500003F110026A4402F80C4C0A2233B901A8CD
:100C6000A847E2E7044600220A26EDE7013BDBB293
:100C700003F110040DEB0406B0FBF2F402FB1400C8
:100C8000303006F80C0C2046E8E700BF380E002094
:100C900000ED00E00400FA0513B5114C6846237C12
:100CA0008DF80130E37B8DF80030A37BADF8043084
:100CB000637BADF8023003F07BFD18B1DE21032029
:100CC000FFF7AEFFA07E03F0A3FD08B1E121F6E738
:100CD000607E03F097FD08B1E221F0E702B010BD9D
:100CE000380E00202DE9F34104460D4671B91C4B26
:100CF00093F82E3053B9012101A80193FFF7F2FFB9
:100D000020B94FF403710320FFF78AFF2368002DF9
:100D1000144F4FF0000603F10703DFF84C800CBFBF
:100D20002046002023F00703236000F0B9FD57F8A8
:100D3000043B0BB1404698470136122EF7D100F024
:100D400027FE031E09DB206818440DB1002804DBD0
:100D50002060012002B0BDE8F0810020FAE700BF6A
:100D6000380E00205C000020400E00202DE9FF41DD
:100D7000B0FA80F60546039003A876093146FFF7DE
:100D8000B1FF20B96FF00B0004B0BDE8F0818F4CCB
:100D9000A17B607B0331237CE27B03300DF058FBA9
:100DA000011EEFDB0398002D237A627A00F1030025
:100DB000134420F0030003FB01F1039008BF00205F
:100DC00000F052FF039B0DB9C342DBD41844A37A51
:100DD0000390C3B1E17D1944E37A1944FF29D1DCC2
:100DE0000330002D628AC9B220F00300039008BFCF
:100DF000002000F0A9FF031EC4DB039818440DB9BE
:100E00000028BFDB0390724F7B68F3B1617CE1B1D6
:100E100094F82F300398002B00F1070014BF4023F3
:100E2000252320F0070014BF4FF481722822002DE3
:100E3000039008BF002002F05BFD031EA2DB0398B5
:100E400018440DB900289DDB0390217DC1B1A37A20
:100E50001BB97B68A3B1637C93B10398002D00F1AB
:100E6000070020F00700039008BF002005F014FCE5
:100E7000031E87DB039818440DB9002882DB03901A
:100E8000544B1B68B3B1217BA1B10398002D627D47
:100E900000F1030020F00300039008BF00209847F2
:100EA000031EFFF66FAF0398184415B90028FFF62C
:100EB00069AF0390484B1B68ABB1A17D99B1039812
:100EC000002D00F1030020F00300039008BF002074
:100ED0009847031EFFF656AF0398184415B900282B
:100EE000FFF650AF03903D4BD3F80080B8F1000FF0
:100EF00019D0E17DB9B10398002DA37E00F1030064
:100F0000227E009320F00300637E039008BF002040
:100F1000C047031EFFF636AF0398184415B90028E2
:100F2000FFF630AF0390FB69BBB1217BA9B10398F9
:100F3000002D227F00F1030020F00300039008BF82
:100F4000002000F0EFFF031EFFF61CAF03981844CB
:100F500015B90028FFF616AF039094F82700C0B12A
:100F6000039A94F821300332A17F22F0070219443A
:100F7000334642F00402C9B2039201F015F8031E91
:100F8000FFF600AF0398184415B90028FFF6FAAE33
:100F9000039094F82810002975D0039F002D628DCE
:100FA00007F1070708BF002027F0070718BF3846DA
:100FB00003970DF062FA031EFFF6E4AE039818449F
:100FC00075B90028FFF6DEAE0AE000BF380E00203B
:100FD0005C000020A4000020AC000020A80000203D
:100FE00003901DB1618D38460AF03CF994F8221047
:100FF00000294AD094F82630002B46D00398002DC3
:10100000A28C00F1070002F1240220F0070092B246
:10101000039008BF00200DF030FA021EFFF6B2AEBA
:10102000039F3A4415B9002AFFF6ACAE033294F898
:101030002030A17F22F0070294F82600194433469D
:1010400042F00402C9B2039200F0A0FF031EFFF6B3
:1010500099AE0398184415B90028FFF693AE039093
:101060003DB1A28C384694F82210083292B20AF0B0
:10107000FFF8236BA3B1039B05B1236328330393CC
:101080004DB1002080E60F46ABE7002DF1D00022E5
:1010900011461046EBE7002BFFF674AE039873E69B
:1010A000002DEED1FAE700BF38B50546002850D034
:1010B0000CF052F818B94FF0FF34204638BD11F04B
:1010C0005CFAB0F5FA7FF6D8234C24486560002519
:1010D00000F0C6FA48222946214884F82E5011F023
:1010E00054FE2622294604F10800257084F82F506A
:1010F000256311F04AFE40F2011301212A462381A3
:101100001B230846A172637340F21B332177E381EE
:1011100040F2023323821F2363824FF40273A382BF
:1011200044F601132383F723A384FB23638502F092
:10113000A1FD044620B140F273310320FFF770FD9A
:10114000EFF3108572B600F03FFF002DB5D162B607
:10115000B3E76FF01504B0E7380E0020990C0000DB
:101160005C00002010B5002840F0AF80584C94F887
:101170002E30032B00F0A680A1B1002A70D00139D7
:10118000152900F2A280DFE801F00B1C1F2F575F2A
:1011900078356265733B414E537D808E919585997C
:1011A000137823720020FFF7E1FD0028B7BF012369
:1011B00002236FF00B0084F82E30A8BF84F82E3085
:1011C00010BD13786372EDE79378002B48D0D37885
:1011D000002B45D013781A2B42D953781A2B3FD9BC
:1011E0001368C4F80D30DDE71378E27A934237D301
:1011F000A372D7E71378A27A934231D8E372D1E78A
:101200001378A27A93422BD8E375CBE713783BB3DC
:101210005378013BDBB2F82B22D8138892782383D2
:101220002C4B9A70BEE71078E07608F00DFDB9E718
:101230001378ABB12377B5E71378274A52680AB120
:10124000012B0DD96374ADE713886382AAE7137885
:101250002373A7E720491378C96921B9012B04D862
:101260006FF01500ACE7002BFAD01378637599E79F
:101270001378082BF4D8A37594E71388FF2BEFD8C5
:1012800023758FE7137863778CE713780E2BE7D8F5
:10129000A37787E713681149C4F8223053684B607D
:1012A00013890B817EE71378E3777BE7137884F863
:1012B000213077E7137884F8203073E7137884F8C7
:1012C0002C306FE74FF0FF307AE76FF02C0077E7B4
:1012D000380E0020500E00205C0000205A0E002026
:1012E00070B50D460646002841D000293FD04B0777
:1012F0003DD1204C94F82E30012B02D16FF00B0021
:1013000070BD032B02D14FF0FF30F9E700F0DCF89D
:101310000028F8D02846FFF729FD0028EEDB164B01
:10132000D3F8A828B2F1004F0ED1144AC3F8A82868
:10133000134AC3F8AC28134AC3F8B028124AC3F8BA
:10134000B428124AC3F8B82830460BF0C9FF84F815
:10135000340011F081F894F83400216B03F0DAFACC
:10136000FFF79AFC0323002084F82E30C8E76FF0C3
:101370001500C5E7380E002000A008505F0050039C
:1013800008001C00040054011FAAF8000700D00048
:1013900010B5094C94F82E30032B07D103F0D6FA80
:1013A00009F056FF94F834000BF0B6FF0DF08EF9FB
:1013B000002084F82E0010BD380E002050B1074BDD
:1013C00003F1140253F8041B934240F8041BF9D1B3
:1013D000002070476FF01500704700BFF7720300E0
:1013E000074B10B593F82E4034B903F05DFA054B66
:1013F000054A2046DA6010BD4FF0FF30FBE700BF22
:10140000380E00205C000020B90B0000074B10B51F
:1014100093F82E4034B903F05BFA054B054A204699
:101420009A6010BD4FF0FF30FBE700BF380E002080
:101430005C000020ED0B0000054B10B593F82E402A
:101440001CB903F0F3F9204610BD4FF0FF30FBE765
:10145000380E0020054B10B593F82E401CB90EF045
:10146000AAFD204610BD4FF0FF30FBE7380E0020EC
:10147000054B10B593F82E401CB90EF09FFD204689
:1014800010BD4FF0FF30FBE7380E002008B5064BCB
:1014900093F82E30032B03D002F0B8FE002008BDD5
:1014A0004FF0FF30FBE700BF380E0020026800203D
:1014B000014B1A60704700BF700E0020014B1B6883
:1014C000184700BF700E0020024B1868003818BF84
:1014D00001207047700E0020F7B504462D4E071D01
:1014E0002C48376004F0F0F90228054606D1294956
:1014F00020460CF074F9284603B0F0BD042842D110
:101500003378092B0AD0252B1ED0314620460CF00B
:10151000E0F9B0F5817F2DD3722112E005213E2044
:101520000CF030F90028F0D1F37801A9327968463F
:1015300043EA0223ADF800300CF04CFD0028CFD078
:1015400053210820FFF76CFB1A213E200CF01AF9FA
:101550000028DAD17368694601A8C3F30F23ADF8F8
:10156000043011238DF806300CF06CFD0028B7D044
:101570006521E6E70028B3D0A17820780CF002F9C5
:101580000028B8D1ACE70828B5D1024920460CF0B4
:101590005EF9B0E7740E0020074B4FF0FF3141F6C3
:1015A000FF72C3E9001205490022C1E900221F2190
:1015B000C3E90212704700BF00000020780F00202E
:1015C0003F280CD801380B4BC0F3421200F01F002B
:1015D00053F8223023FA00F000F001007047FF2892
:1015E00006D04038044BC0F3421200F01F00EFE772
:1015F0000120704700000020780F0020074B0146B3
:10160000006849681A4603C240F48C221A6041F00F
:10161000107242F4FF625A60704700BF0000002061
:101620000246024B0068516803C37047780F0020E0
:101630000246024B0068516803C37047080000204F
:101640000138064BC0F3421200F01F0003EB820387
:101650009B6823FA00F000F00100704700000020B2
:10166000014B1860704700BF800F002010B5FFF7D6
:1016700093FF0DF026FE034B04461B6803B1984709
:10168000204610BD800F002038B5274B0446D3F804
:10169000A023D3F8A413013106D1D3F8A8334FF611
:1016A000FF719BB28B423DD0D3073BD51E4DD5F881
:1016B000A423D5F8A833C4F80120A4F80530C3F357
:1016C000072363F03F03A371D5F89033013323D090
:1016D000D5F8943301331FD0D5F8983301331BD09C
:1016E000D5F89C33013317D0002003F095FA98B950
:1016F000D5F89003D5F89413D5F89823D5F89C33F2
:10170000C4F80700C4F80B10C4F80F20C4F8133055
:1017100001230020237038BD10220021E01D11F0AC
:1017200034FBF5E70023F4E700C0FF0070B5274D58
:10173000102200210446D5F8A06311F026FB1022E8
:101740000021A01811F021FBD5F8803301330BD113
:10175000D5F88433013307D1D5F88833013303D169
:10176000D5F88C3301330BD0D5F88003D5F884132A
:10177000D5F88823D5F88C3320616161A261E361DB
:10178000002003F049FA08B9F3071CD40F4BD3F833
:10179000902301320BD1D3F89423013207D1D3F82F
:1017A0009823013203D1D3F89C2301320BD0D3F814
:1017B0009003D3F89413D3F89823D3F89C33206084
:1017C0006160A260E360002070BD00BF00C0FF0048
:1017D00070B50C88C27CA6B2C4F30E04931C0588B5
:1017E00004F114021D44825AADB21A4443882A44BB
:1017F000013AB2FBF5F202FB054292B29342044B6E
:101800008BBF3340B34313439BB20B8070BD00BF0B
:101810000080FFFF4A1E062A08B50346084604D882
:101820004FF4D1711520FFF7FBF9094A914202D913
:1018300040F2A311F6E711B903B1196008BD2BB14D
:101840001B680022C3E901211A1D1A600430F5E764
:10185000FAFFFF7F10B5114B00EB41041A78638942
:10186000B3FBF2F303FB0223013A1A44B2F5706FA3
:10187000027928BF00231A448378B2FBF3F019449D
:1018800003FB1020091AB1FBF3F003FB1013134400
:101890006FEA43436FEA5343638110BD840F002016
:1018A000124B10B5E0B15A78022A04D040F22B1145
:1018B0001720FFF7B5F903225A70026812F00701EA
:1018C00002D04FF49871F3E75C685A602244BDE897
:1018D0001040026003F10C009A60482211F055BAE2
:1018E0000122C3E901005A7010BD00BF840F00201F
:1018F0002DE9F041254E96F801E00EF0FD0CBCF10B
:10190000010F04D040F245111720FFF789F991F833
:101910000680B8F1080F02D940F24711F4E7CF79F9
:1019200097B345467B1D7268022D4FEA430402EBD4
:10193000430338BF02256A1E6D421344C8F10002FA
:101940002B408D884544013D2A40B2F5803F02D3AB
:101950004FF4A971D8E7BEF1030F12D106EB800056
:101960001C1BC56815B140F25711CDE7C460A770C4
:10197000228084F803C0087A09682071080C21814C
:10198000E08007FB02337360BDE8F081840F002024
:101990002DE9F047364C6378012B65D0032B04D03A
:1019A00040F267111720FFF73BF9D4E901329A4260
:1019B00002D04FF4B571F5E70023254611221E46EB
:1019C000994605F80C3B55F82200013A58B190F8B9
:1019D00004808178B8F1FF0F2FD180F804908E42F7
:1019E0003CBFCEB20123511CEDD103B126701126AC
:1019F00040F6FF6955F826709FBB013EFAD20423DA
:101A000000206370BDE8F08755F82CE0BEF1000FB0
:101A100006D09EF804A0C24504BF9EF802E07744B9
:101A20000CF1FF3CBCF1000FEEDA3944FF2907D975
:101A300003B126704FF48371B4E794460027F1E7B1
:101A40000771CCE707EB410308F101083846A3F81A
:101A50000A90FFF7FFFE5FFA88F1BB788B42F1D85E
:101A6000CBE74FF00008F6E7022360686370C9E730
:101A7000840F0020034B03EB8003D86800B180780B
:101A8000704700BF840F0020F8B54FF6FF7305467E
:101A90000380184B03EB8103D868B8B186780379CB
:101AA000B3FBF6F206FB1233DBB219460A1D00EB5C
:101AB0004202B2F902705488002F09DB0131B1FBF8
:101AC000F6F206FB1211C9B28B42EFD10020F8BD2D
:101AD000FF29FBD0C4F30E03C4782B8024B94FF444
:101AE000D9711720FFF79CF85380BDE8F8400CF03F
:101AF0008EBC00BF840F00201D4B03EB810370B52B
:101B0000DC68054644B3030404D54FF4E0711720A4
:101B1000FFF786F8014620460CF05CFCFF280146E2
:101B200004D02046BDE870400CF071BCA078B5FB35
:101B3000F0F300FB1353DBB219460A1D04EB420617
:101B4000B6F90260002E09DB0131B1FBF0F200FBB7
:101B50001211C9B28B42F0D1002070BDFF29FBD019
:101B60008B4204EB42021CBF0023E3705580D8E790
:101B7000840F0020094B03EB8103014610B5DC689C
:101B800020460CF027FCFF28014604D02046BDE883
:101B900010400CF03CBC002010BD00BF840F0020A2
:101BA000F8B5104B074603EB81030146DC6820467D
:101BB0000CF010FCFF28054611D0E688238953EA73
:101BC000064606D0014620460CF021FC0146384668
:101BD000B04720462946FFF73DFE0020F8BD05200E
:101BE000FCE700BF840F002038B50E4B0446827915
:101BF00003EB8203D86808B9052038BD8278E17903
:101C00009142F9D24B1CE37100EB41035D89B3F9BA
:101C10000A30002BF3DBA5800CF0F9FB20600020DC
:101C2000EBE700BF840F002008B50E4B03EB8103E8
:101C3000DA6822B940F22E211720FEF7F1FF9178E1
:101C4000831A481DA3EB40031088B3FBF0F3002B6D
:101C500001DB994202DC40F23121EDE702EB430364
:101C6000588908BD840F002070B5044610F00300A9
:101C70000E4603D04F211820FEF7D2FFFFF7CAFD12
:101C8000054624B1034831460460FFF7C3FD2846EA
:101C900070BD00BFD80F00202DE9F14FDFF870B004
:101CA0001E4607460D46DBF8003090469DF828A0FA
:101CB0009DF82C901BB961211820FEF7B1FF524608
:101CC000092140460CF00DFA4A4684B209213046FB
:101CD0000CF007FA81B2DBF8000021440CF04FFB56
:101CE000386018B9286001B0BDE8F08F044453464D
:101CF000414609222C6038680CF0ACF94B460922A9
:101D00003146286801B0BDE8F04F0CF0A3B900BF20
:101D1000D80F002070B50E4604460CF0F5F90546C4
:101D200030460CF0F1F9044B2A1821461868BDE83A
:101D300070400CF048BB00BFD80F0020014B186862
:101D40000CF011BBD80F00201F2AF8B5044613462B
:101D50000ED89200033222F00303B3F5803F2DD258
:101D6000184DACB1A00710D05F210920FEF758FF35
:101D7000FF2B4FEA420204D9FF339A42A8BF1A460A
:101D8000E8E77C2AB8BF7C22E4E729706C602B81ED
:101D900022F0030228230127120403FB01F06B68E1
:101DA0000025120CEEB28E4200D3F8BD14B12618F5
:101DB0001F705E60104401352833F3E74FF0FF30A9
:101DC000F3E700BFDC0F0020144A002138B5536848
:101DD0001478C8B2844203D8AB210920FEF720FF53
:101DE0001846013128330578002DF2D0002181708A
:101DF000012412898161051D44709208C16100F1BE
:101E00002001446821F8022B994245F8044B144400
:101E1000F8D100234361037038BD00BFDC0F002000
:101E20000A4B1B89B3F5FF7F4FEA930006D25A088D
:101E30009B1A9BB2984238BF18467047B3F5EE6FB5
:101E400001D8FF22F4E740F27263F3E7DC0F0020D1
:101E50002DE9F8434B7880460C4602F0040602F068
:101E6000FB07D3B1DFB12E4BD4F804901D89B7BB6B
:101E70000123AD084A46211D637004F1280004F1D6
:101E80002003A761E76123F8025B984241F8042B25
:101E90002A44F8D10023636101E0002FE3D0FF233F
:101EA000A370002E18BF0226A3191B7D032B03D19C
:101EB000022F1CBF0136F6B2A31901221A7506F1D2
:101EC0000C02002304EB860624F812307268A3701B
:101ED0004046C8F80020A8F80430BDE8F883002187
:101EE00014226170A01810F050FFB5F5FF7F0FD2DB
:101EF0006B08ED1AADB209EB0502C4F80490258415
:101F0000A2606384C4F80C90A5842261E384C6E7D0
:101F1000B5F5EE6F4FF0FF03EBD940F27265EAE7DB
:101F2000DC0F00202DE9F84305460C46F72005217B
:101F300091460CF0D6F8061E22DB1DB906FB04F014
:101F4000BDE8F88315F0030703D098211920FEF7A8
:101F500067FEDFF83480C8F81050A5B2A8F8146006
:101F6000BBB29D42EAD9B8F814C04B46D8F810006D
:101F70000522F72107FB0C0001370CF06BF8EFE7A7
:101F80004FF0FF30DCE700BFF00F002007B5CDE9D0
:101F900000230B4603490246081D0CF071FB03B0F9
:101FA0005DF804FB0810002013B5064CCDE90023B2
:101FB0000B46024604F1080104F10C000CF060FB32
:101FC00002B010BD08100020124B01224FF0FF306C
:101FD00000211B685A60C3F80803C3F80015C3F852
:101FE00004250D4B1B685A6040F6FE72C3F80803C7
:101FF0004020C3F80015094B0949C3F80825C1F86A
:102000008800BFF34F8FBFF36F8FC1F88801C3F80B
:102010000825704744040020400400200020085098
:1020200000E100E00A460648382302F8033BC36893
:10203000C1F803300369536043699360704700BF80
:1020400018100020024B5A8C02435A845B6A1847CE
:1020500018100020014B00215B6A1847181000205F
:102060000138C0B2032808B504D940F21F41062048
:10207000FEF7D6FD014B185C08BD00BF2C0903001C
:1020800010B50E4CA26A137803F00303032B04D19E
:10209000D378022B01D1002010BDE06A0CF0C6F805
:1020A0000028F9D1A36A1B7803F00303032BF2D0B5
:1020B00002F072FD80F00100C0B2EDE718100020C0
:1020C00038B51D4C0546236B984708B9012038BD2B
:1020D00094F83430002BF9D194F838301BB9012D25
:1020E00003D00020F3E7002DFBD194F84030DD064B
:1020F000C3F3001001D5FFF7C3FF636CA26C1B781C
:10210000C3F300132AB9B4F84C2013B1B2FA82F326
:102110005B0994F83810628C39B1910705D5A36A30
:10212000D878023818BF0120D1E7002ACED1002884
:10213000D7D183F00100CAE718100020014BD86BFB
:102140009030704718100020014BD86B704700BFCB
:102150001810002010B5174C08F092FC07F0BAFFD9
:10216000B4F84E00FFF776FF237E63B12246124992
:1021700004F1190052F80C3BE36063685360A368F4
:1021800093600EF0FFFE0D4BB4F84E2093E8030071
:1021900004F00CFBFFF7D8FF008804F031FA636D00
:1021A00094F8341094F850009847002384F858307D
:1021B00010BD00BF18100020252000005010002086
:1021C000034B93F858300BB1FFF7C4BF704700BF03
:1021D0001810002008B5094B93F85820022A04D0A3
:1021E00040F253212720FEF71BFDDA7A42F001026C
:1021F000DA72BDE80840FFF7ADBF00BF181000203D
:10220000F8B5244C0746FFF79FFF0546FFF796FFFA
:10221000636C064694F86000E365337D0BB1031DE3
:10222000D8B295F87D102FB9FF2803D195F87C30EE
:102230008B4201D008F020FA337D23B3606E08F0A2
:10224000FBFC94F83830616E003BE06D18BF012351
:1022500084F88830D6E91E23C4E91E2307F054FE13
:1022600047B995F87D30033B012B94BF282000200F
:1022700008F020FD95F87C10002008F07BFD02237B
:1022800084F85830F8BDE06D08F0D6FC07F022FF66
:10229000E6E700BF181000202DE9F347314D064650
:1022A000FFF74CFF0F4695F858300446012B5FFAB4
:1022B00083F804D040F2A4412720FEF7B1FC037953
:1022C0004BB1002101710420FFF7BCFE95F83830B6
:1022D0000BB184F80680A96A0B7803F00303032B83
:1022E00004D1A37A13B90220FFF7ACFEAA6A1378CF
:1022F00003F00303032B02D0537823BB0123A37203
:10230000237DD3B1FFF720FF95F8383090F87D009A
:10231000003B95F860A018BF0123D4E91E8985F819
:102320008830C5E91E89FFF79BFE002203460E494F
:1023300000920220524607F07FFD36B102B0BDE8A0
:10234000F047FFF707BF0223D9E7002FF6D030464A
:10235000FFF7B6FE0028F1D102B0BDE8F047FFF765
:102360004FBF00BF181000208010002073B5024638
:10237000FFF7E4FE0546664CFFF7E6FE0023297DE5
:1023800006468DF8053094F8603009B10433DBB2AD
:1023900096F87C102AB9FF2B03D196F87D308B423A
:1023A00002D0FF2008F068F9AB7A032B00F2A78077
:1023B000DFE803F0023A859894F890305548ADF87C
:1023C0000630A6F86C3002F0BDFB78B1A16A4FF47C
:1023D0008070FFF737FE0121A36A6971DB781B2B40
:1023E0001ED106F1100008F077F919E00DF1050291
:1023F0000DF10601E06A0BF0AFFEA062A0B195F806
:1024000051308BB99DF805302BB9038001218370C1
:10241000A06A0EF070FCBDF80610A06A0EF076FD02
:10242000012384F8913001E03B4BA362EB7AA16A6F
:10243000DB0003F008020B7803F0F30313432A7B5D
:10244000920002F00402134323F010030B70FFF715
:1024500017FE0028A06A14BF10230023027813433C
:102460000370EB7C002B4DD04378002B4AD0606E7C
:1024700008F0E2FB94F83830A16AB3FA83F3606E97
:102480005B0984F88830D5E91C23C4E91E2307F0D2
:102490003BFDA06A0CF02CF996F87D10012008F0A5
:1024A00069FCA26A0123118884F8E230A4F8401084
:1024B00091781A4A84F85830917002B070BDB6F81D
:1024C0006C300DF105020DF10601E06AADF8063041
:1024D0000BF042FEA0620028A2D140F2F321272097
:1024E000FEF79EFB0B4802F02DFB10B940F2FD21D8
:1024F000F5E7A36ADB781B2B92D1012171E740F24B
:102500000B31ECE708F098FB07F0E4FDC1E700BFF2
:102510001810002040100020AA10002058100020A1
:10252000064B10B593F8582002F0FF0422B91C7630
:1025300004F034F9204610BD0C24FBE718100020ED
:102540000A4B0B4A70B506460D461A60FFF7E8FFC6
:1025500018B1E1212720FEF763FB064C012104F1AD
:1025600092000EF0C8FB6664656670BDC000002076
:10257000B000002018100020024B012283F8E32055
:10258000704700BF181000202DE9F04385B0B54C0E
:1025900002AE0C9F86E8030094F8581001F0FF0586
:1025A00011B90AB103B127B940F26F112720FEF724
:1025B00037FB04F1380C23636262676584F8E350EB
:1025C00084F8345084F8E45084F8505084F8E25091
:1025D00084F891506584A4F84E5096E803008CE886
:1025E0000300FFF7ABFD0746FFF7AEFD054608F019
:1025F00095F807F06FFD95F9800008F001F9A86BD8
:1026000008F0FEFA286A08F001F997F8240008F0AB
:1026100023F994F83860EA6941F64B53002E40F0F4
:10262000CB809A4200F2B7804D2007F0B5FF3046CC
:1026300008F07AF96E2195F87C20002008F094F9D2
:10264000894B186808F0E2FA6B69E362AB69C4F879
:10265000E83095F88B3063B9D5F884204AB1F98F0A
:102660003B898B4205D1B5F888100B44FB870123C9
:10267000136007F180037D4E07F1900C1868083352
:1026800053F8041C3246634503C21646F6D1596816
:10269000D7F89000764A03C2FFF756FD0146FFF7D0
:1026A0004DFD837B0246A3F12600012891F87C00B2
:1026B00003D9D27B262A40F0948094F83820E36B2B
:1026C000002A40F08B8093F84A120CF001F806467D
:1026D00005F14408314640460EF012FD31460DF03A
:1026E000E5FFB5F8503095F87D10834228BF0346CA
:1026F000404684F890300EF0C9FC95F87D1097F8AC
:1027000014800429B5F8586008BF03210DF0CEFFEE
:10271000B8F1000F01D1043080B2B04228BF30467A
:10272000C6B284F8EC6003F0C5F910B1492E38BF89
:10273000492694F8388084F86060B8F1000F77D1AA
:10274000FB7C93B1012395F87C0084F88830D7E9AD
:102750001C23C4E91E23FFF783FCFB2203464349E5
:102760000420CDF8008007F067FB0120FFF7FEFD95
:10277000002323606360A3603B8963802B882380F0
:1027800097F824302371D5F88C300BB101221A60F0
:1027900005B0BDE8F083962007F0FEFE95F87C209A
:1027A000344B03EB820359684FF47A7301F5FA71E5
:1027B000B1FBF3F16E313EE79A420AD84D2007F0A3
:1027C000EBFE012008F0B0F89B2195F87D20012058
:1027D00034E7962007F0E0FEC421F6E793F8D6121E
:1027E00073E7213B012B10D8242A10D094F83830FD
:1027F000CBB1E36B93F84E315A0712D413F00101B9
:102800007FF463AF03F002015FE7242A0BD194F851
:10281000383043B1E26B92F84E3192F87520134094
:10282000EAE7042151E7032814BF064604264FE7D0
:102830003B7D93B1012395F87D00D7E91E8984F88B
:102840008830C4E91E89FFF70BFC002203460749C4
:1028500000920220324607F0EFFA0120FFF7D0FC89
:1028600086E700BF18100020C00000208010002064
:10287000981000202C09030008B5114B93F858203C
:102880001AB9BDE80840FFF765BC93F8382042B993
:1028900093F85830012B12D040F231212720FEF757
:1028A000BFF993F85820022A02D040F23521F5E70B
:1028B000DB6BD3F81802BDE8084008F0CFB908BDBB
:1028C00018100020014B1876704700BF1810002028
:1028D000014B93F8E200704718100020054B93F865
:1028E000912022B9B3F84E00C0F3003070470120A8
:1028F000704700BF18100020024BB3F84E00C0F321
:10290000C020704718100020014B93F8E400704776
:10291000181000202DE9F3410646FFF70FFC0F4683
:102920000446B20722D51A4DAB6C23B940F295414B
:102930002720FEF775F9B5F84C201846E96D0332EB
:1029400091F8018010F0F6F90DF1020201A9E86595
:10295000D5F8E8000BF0FDFC01980BF0E4FC012237
:1029600038604146D5F8E8000BF0AAFCF3070CD517
:10297000D4E91E32013342F10002C4E91E32237B46
:10298000012B0CBF00230123237302B0BDE8F081AB
:10299000181000202DE9F04F85B08046B54CFFF7A8
:1029A000CDFB0746FFF7D0FB00238A468146CDE9E1
:1029B000023394F85830022B04D04FF4A36127203F
:1029C000FEF72EF9B4F84E30590608D44020FFF730
:1029D00041FBB4F84E3043F04003A4F84E303B7D49
:1029E000B8F1000F00F04C81ABB107F09DFB07F090
:1029F0007FFB80B9E36D5A786AB11B783A7BC3F3E9
:102A0000C0039A4207D1012384F85030FFF7A2FB9C
:102A100005B0BDE8F08FE36D5978A4F84C1011B300
:102A2000D4F8E8000BF023FCA064B4F84E30FA7A36
:102A300043F40073A4F84E30E36D1B78C3F38003B6
:102A40009A4200F0BD80FFF779FB837A0546002BA0
:102A500038D0022B10D102A9E06A0BF09FFB20B9FD
:102A600040F20E41ABE7A164DFE7D5E91C32013348
:102A700042F10002C5E91C32002194F83830A972F5
:102A80002BB1AB791BB11020A971FFF7DBFA6B7981
:102A900093B100266E7102F067F810B940F225413B
:102AA0008DE731460820FFF7CDFAD5E91C32013316
:102AB00042F10002C5E91C32EB7A012B0CBF002366
:102AC0000123EB72B4F84E304FF0000B43F4006377
:102AD000A4F84E30E16D3A7B0D78C5F3C0039A42FD
:102AE00070D00025E06D0BF003FEFB7CB3B194F8D1
:102AF000383099F87C00B3FA83F35B0984F88830A6
:102B0000D7E91C23C4E91E23FFF7AAFA00220346D3
:102B1000594900920420FB2207F08EF9BAF1000F08
:102B200000F0C780012608F04BF91DB103A902206F
:102B3000FFF7F0FEBBF1000F0FD094F838303BB137
:102B4000B4F80720B4F8053013433A89134304D08E
:102B5000B4F809300133A4F80930B8F1000F00F0DF
:102B6000C280B4F805300133A4F80530002384F89E
:102B7000E430424803F032FD029830B10BF0D3FB51
:102B8000E16B0022027202F0DDFE039B33B1E16BC8
:102B900000221A720C22039802F0B4FE002E7FF479
:102BA00035AFB4F84E301B063FF532AF8020FFF74B
:102BB00051FAB4F84E3043F08003A4F84E3027E7C2
:102BC000C34687E705F00305FFF7B8FA0646032D6D
:102BD00012D0EDB9337B013B18BF01233373E36D92
:102BE0005B78002B3FF47EAFD6E91E32013342F111
:102BF0000002C6E91E3275E7B4F84E300120002508
:102C000043F480533071A4F84E30FFF71BFAE1E72C
:102C10004D78002DDED0B4F84E30057D43F480535E
:102C2000A4F84E3007F0D2FC042894F8EC3006D11A
:102C3000002D14BF1B221F22934228BF1346E26DB2
:102C400052789A420AD8A36C002B3FF44AAF94F80A
:102C5000E3306BB12020FFF7FDF942E794F8343000
:102C6000012043F0100384F8343008F0B7FF38E750
:102C70004546AFE7181000208010002050100020BB
:102C80000BB107F05FFA94F8E430013384F8E430D4
:102C9000B4F84E3043F48063A4F84E3099F87D3098
:102CA000033B012B02D8012008F098FF0025AB461A
:102CB0001BE794F8382094F8E4303AB1628C12079C
:102CC00004D5A26AD278022A3FF42CAF012B3FF63A
:102CD00029AF0120FFF7F4F9064600287FF422AF60
:102CE000FFF744FB21E7B4F807300133A4F80730BD
:102CF0003FE700BF2DE9F04F04468BB01E4600238E
:102D00000D461746069390F87D800DF0B3F994F8C0
:102D100006320B2B04D940F2B5310620FDF780FFB7
:102D2000C64A32F813B094F89F308344039387F077
:102D300001031FFA8BFB0493A7BB94F84432032BC7
:102D400030D1039B0E2B2DD1B4F8D432AB4229D114
:102D5000D4F84C322046B4F81C22C4F83832E36967
:102D6000C4F83C32B4F892321344C4F8403206F04E
:102D700095FEE269D4F8DC329A4203D004F12800CF
:102D80000FF05AFBD4F8D832E363B4F8D632A4F883
:102D90004030D4F8DC32E361D4F8E03263620223DD
:102DA00084F84432B4F890A204F51873B4F89890FB
:102DB000A5EB0A0A0593A5EB09090FFA8AF30FFAA6
:102DC00089F9002B17DAD4E99E23C4E9A223002352
:102DD000012284F85B324B4694F844A2984F5FFA84
:102DE0008AFABAF1030F00F2CE81DFE81AF006008A
:102DF0002B0163004B013246EEE794F87D1094F806
:102E000016020DF07AFC8046E06B594640440FF004
:102E1000ACFB5946C4F84802E0690FF0A6FBE26932
:102E200041F64B5307A99A4298BF4FF0020A50440B
:102E3000C4F84C0208A807F0CBFF079BD4E9A20115
:102E40000093DDE908230FF05DFE814620460BF07C
:102E500074FCD4F8943294F87D00D4F83CA0069326
:102E600008F0E8F8069B00F52240D4F84812BB3B76
:102E7000B1309A444FF47A73AAEB010A3031B0FBB7
:102E8000F3F0D044B4F84030A8EB090803EB41015B
:102E9000A8EB0000069094F87D000BF05AFCD4F8E3
:102EA0009422069B38609B1ACC2B68D840F2C6410E
:102EB000302033E7E36B5946D4F83C0218440FF056
:102EC00054FB5946C4F84802E0690FF04EFB41F646
:102ED0004B53E2699A4288BF4FF0000A5044C4F84D
:102EE0004C0220460BF029FCB4F81C32D4F83C808C
:102EF000D4F83CA2002B40F09A80002E00F097807E
:102F0000D04494F87D0008F095F8D4F84832A8F140
:102F1000BB0800F5224994F87D004FF47A7BA8EBBA
:102F20000308D4F8803209F1B1099844C31ED4E9EA
:102F30009E12012BA8EB0108B9FBFBF974D908F02C
:102F400079F800F2E730B0FBFBFBA8EB090808EBCF
:102F50000B000690D4F84812D4F83832D4F8402246
:102F6000303194F87D0002FB0311B4F8403003EBDC
:102F700041010BF0EEFB0123386084F84432E36931
:102F80004FF00008D4F84C2204F14400A3F5A273DA
:102F90003F6806999B1A84F860829F4228BF1F46AB
:102FA000D4E9A232C4F818725B1842F10002C4E9F5
:102FB0009C320EF069F80744A4F89052C4F8647289
:102FC000D4E99C23C4E9A22305F06AFF20B1D4F818
:102FD00064321E33C4F86432B4F8081284F868828C
:102FE0004D1B2DB2002DC4BF022384F86832039B11
:102FF0000E2B00F0CB80002E40F0C98094F84432B4
:10300000002B00F0E180E16904F51870D4F84C322F
:10301000C91A0DF01AFB80B2002800F0D580149B6D
:1030200003B118800120DFE04FF03E0B8DE7D04464
:10303000D4F84832A8EB030306938BE74409030056
:1030400008110020D4F84C22E169D4F83802891A1A
:103050004B43D4F840120693B4F81C329944CB4346
:103060009944D4F84832303300FB0133B4F84010AF
:1030700094F87D0002FB093301EB43010BF069FB7F
:1030800038607CE7E069584306905EB3B4F81C12E0
:1030900041BB84F85B12D4F84C1201FB130A94F87C
:1030A0009E30262BCDF818A003D094F89F30262B05
:1030B00009D1B4F8D432EB1A1B0404D494F8D732F3
:1030C000002B18BF9846002A3AD0B4F81C32BBBB7C
:1030D000D4E99E23D4E9A00182428B4108D340F277
:1030E0001A51E5E694F85B1200297FF448AFD2E765
:1030F00094F87D00C31E012B40D907F09BFF00F51B
:1031000022404FF47A7BB130B0FBFBF000F1AB0B07
:10311000D4F8803294F87D00103BD4E99E125A1AFC
:10312000C31E012B92442CD907F084FF4FF47A730D
:1031300000F2E730B0FBF3F0AAEB0B0A5044069024
:10314000B4F81C1240468944D4F84C1201FB09F92A
:1031500009F130094FEA490949460BF0FAFA244AC5
:1031600041F64B531060E06998423FF608AF06AB5A
:1031700049460DF0DFFA84F85B0200E74FF4897BE3
:10318000C6E73E20D8E740F2325191E6E6B1B4F806
:10319000301219B3B4F8322294F83432501CA4F827
:1031A000322202FB033399420EDD94F868325BB1A0
:1031B0000023A4F8320284F8683202F081FC00F0A7
:1031C0000700013084F8340204F5187194F85C02A9
:1031D00009F066FB20B940F27B5169E60A46DBE75D
:1031E000049B84F8583200200BB0BDE8F08F00BF7C
:1031F00008110020F0B5044685B018B9A62130208A
:10320000FDF70EFD072900F20B81DFE811F0080041
:103210003E003E0039000901F500FD00070190F86D
:1032200058321BB3B0F85632B0F89820934217D1F9
:10323000B0F80C22D31AA0F89820A0F80E3220463D
:10324000D4E99C23C4E99E2306F016FB94F81332BC
:10325000002B00F09F8005B0BDE8F0400FF067B88C
:103260009A1AA0F80E22A4F89830E8E7B0F8543281
:10327000B0F898209B1AA0F80E32B0F85432F2E75A
:1032800005B0BDE8F04007F0AFBD0FF0CDFBD4E9CD
:103290009E23801A61EB0301012871F1000302DA19
:1032A00040F20661ABE76FF0010383424FF0000389
:1032B0008B4102DA40F20761A1E7E3690BB1B0FB91
:1032C000F3F394F89F10B4F856220E2942D101323C
:1032D000A4F85622B4F8923202AEB4F898500133F2
:1032E000504FA4F89232B4F8D4301D44B4F8D23020
:1032F000013DED1AADB23B685BB1B4F85612002245
:103300002046013989B29847B4F856321844A4F8D7
:103310005602B4F856126B1A18043DD40023204606
:1033200000961A46FFF7E6FC88B301282CD1B4F8C2
:103330005622B4F80812BDF808301344521A120489
:103340009BB204D5EA1A12F4004F18BF0B46A4F83A
:103350005632D0E7B4F898100B449BB2D11A0D0442
:1033600054BF531C01339BB2A4F8563294F859321F
:10337000002BAFD1B4F80C32B4F85622934204BFFC
:103380000133A4F85632A5E740F2546137E7D4F888
:103390008430F3B905B0F0BD94F8A2303046039400
:1033A000002B0CBF3E23082384F8C13001238DF885
:1033B000083002F0C7FE20460EF0BBFF002394F851
:1033C0005C0284F8443209F0F3F9202384F85C327B
:1033D000E0E7B4F8CE20B4F856329B1A1BB2002BAB
:1033E000D8DDB4F888100B44013BB3FBF1F303FBC9
:1033F0000123A4F8CE30CDE7012008F0EFFB05B0A3
:10340000BDE8F0400BF084B990F84432042B01D0B1
:10341000C521F4E6002380F84432BBE7CB21EEE679
:10342000CF21ECE6CC0000202DE9F04104460E4609
:10343000154690F8403103F0FF071BB10C273846C2
:10344000BDE8F08101464C4809F092F920288046F9
:10345000F4D05822394604F58C700FF096FC84F8AD
:103460001881C4F81C61FF2384F8403136B102F0A2
:103470003FFB00F00700013086F8340202234FF0D2
:103480000008A4F8503184F848810FF078F800F172
:10349000490620460EF057FD0146B6B2D8B30CF0EF
:1034A000E9FD00F5CD61284689B20FF05EF82844A9
:1034B000C4F84C010FF0B8FA30184FF00106A4F828
:1034C000268041F1000184F82061C4E956012046BC
:1034D0000EF04FFDD0B1A5F59465314620460EF0B3
:1034E000A5FC2D1AC4F824514FF0FF326FF00043B1
:1034F000C4E9582304F5A47194F8180109F0D0F92F
:1035000070BB40F2C1113020FDF78AFB3046A43D6C
:103510000EF01FFEE5E72046DFF860800EF086FC27
:10352000A430C4F84C01B8F8040048B1E08C38B1BC
:1035300002F0DEFAB8F80430B0FBF3F202FB13003D
:1035400006440FF071FA361841F10001C4E95661E2
:10355000002DC9D0AE1941F10001C4E95861C9E795
:10356000D4E9562300212046C4E94C23C4E94E2364
:103570000EF01FFD63E700BF21E8000008110020E6
:10358000F0B5002385B0CDE9003303238DF8063074
:103590006846FEF729FB88B11D4E01230027B37151
:1035A0000223CDE902778DF80E3002A8FEF71CFB4E
:1035B0000546A8B10023B37105B0F0BD00980BF02B
:1035C00015FAE5E790F85C0209F094FC94F85C02C7
:1035D00084F8445209F0ECF8202384F85C32DFE7E9
:1035E000029B002BE1D093F85C22202ADDD01888C2
:1035F0004FF6FF739842DDD00221FEF7BBFA044676
:103600000028DFD140F22B113020FDF709FB00BF6D
:1036100008110020044B0022DA719A7142F21072F4
:103620009A80FFF7ADBF00BF08110020014BD87191
:10363000704700BF0811002010B5044606F0CCFF0B
:10364000074B9A68824208D3E16941F64B52914296
:1036500003D9987980F0010010BD0020FCE700BF7D
:1036600008110020F0B5044685B090F8133203F03D
:10367000FF05002B6ED190F84432032B6AD10FF076
:10368000D3F9D4E99E23801A61EB0301012871F17B
:1036900000035FDB6FF00103834275EB010304DA83
:1036A00040F2AF513020FDF7BBFAE269B4F8983030
:1036B0000AB1B0FBF2F2013313449BB2A4F85432C6
:1036C000B4F80C32B4F854229B1A1BB2002B41DD23
:1036D00094F85C0209F0EEF900283BD0FF2384F84F
:1036E0005932B4F8D4300DF10E07B4F898501A4E90
:1036F0001D44B4F8D230013DED1AADB2336863B168
:10370000B4F8541200222046013989B29847B4F81F
:103710005432184480B2A4F85402B4F85432EB1A6C
:103720001B0417D4B4F8541200230122204689B296
:103730000097FFF7DFFA68B1012808D1B4F85432D6
:10374000BDF80E2013449BB2A4F85432D6E740F2E1
:10375000F651A7E705B0F0BDCC0000202DE9B3433A
:10376000044606297FD8DFE801F0042815252C310E
:1037700079003E4B9B7903F0FF025BB90092012375
:10378000B0F80C12FFF7B6FA38B140F2CA61302037
:10379000FDF746FA042384F8443207F0C7F908F02D
:1037A000DDFE0023B4F89820A4F89232A4F8562243
:1037B00084F8593202B0BDE8B083032380F8443264
:1037C000F8E706F029FFC4E9A001F3E7284B1B68DE
:1037D00003B1984794F87D30E569033BDFF88C909E
:1037E000012BD4F84C3294BF4FF028084FF000085A
:1037F0009D4208F5807888BFED1A99F8073098BF88
:1038000000251BB9636C9D4228BF1D46D4F8187271
:1038100004F144000DF038FC0744022009F0BEFA20
:103820000221ED1B25EAE575854228BF054628469D
:1038300009F0FAFA00B92F444246394620460DF005
:10384000B4FCD4F81832C9F80800E069184409F04B
:1038500077FA0028AED140F2793198E702B0BDE89E
:10386000B0430AF06ABF40F2657190E7081100208A
:10387000C4000020012A70B505460C46164615D036
:10388000022A18D042BB06F0A7FE32460146204667
:103890000BF07CF82A46124994F8180108F08EF9CA
:1038A00040B94FF4EF613020FDF7BAF906F094FE0D
:1038B000C5F8940270BDD0F89412012220460BF096
:1038C00065F82A46064994F8180108F077F90028A7
:1038D000F0D140F28971E6E740F28F71E3E700BF73
:1038E000F5310000014B9880704700BF081100209F
:1038F000303270B5054692B20C461E460AF0BDFD48
:1039000035B1044A0023156014765676147193601D
:1039100070BD00BF20110020014B1870704700BF20
:103920001100002038B50A4B0D4653F820400846D8
:1039300007F080FB033D04F58564012D04444FF43A
:103940007A70B4FBF0F494BF28200020204438BDE6
:103950009C0903002DE9F84F05460C46174691F8DF
:103960009EB01E461BB10121204606F01DF994F8B9
:103970003032032B55D8DFE803F002524C5227B9FE
:1039800040F223213520FDF74BF901230027204683
:1039900084F830320BF0DDF8DFF8A4A1DAF800305B
:1039A000002B41D031462046984700FB077800F0B5
:1039B0001BF9D8BB0221B4F92C020DF01BFCB4F8A2
:1039C0002C321B1AA4F82C32D4E9823218EB0303F0
:1039D00042F100021B1842EBE070C4E98230C5E9F5
:1039E000043000232B7094F89E9009F0FD030C2BFB
:1039F0001ED0A9F12603D3F1000949EB03092046A3
:103A00000EF0A6FC10B1B9F1000F14D000232B72F8
:103A100017E00323D4F8387284F83032BCE7E76942
:103A2000BAE740F25D21ADE7B846C0E70020CBE73A
:103A30004FF00109E3E794F83032012BDAB22DD1CF
:103A40002A72002304F144006B720DF01DFB6860C4
:103A5000002E72D0ABF10E0BBBF1010F6DD93946C0
:103A600028460CF0F2FD86B220460EF071FC83462B
:103A7000B9F1000F1AD1864218D308FB00F185F87E
:103A80000890D4E982325B1842F10002C5E90432A1
:103A9000B8F1000F04D140F2A72173E70223B6E783
:103AA000394628460CF0D1FD584486B231462046AE
:103AB00006F07AF8DAF8003063B101212046984721
:103AC00047433044D5E9043286B2DF1942F100029F
:103AD000C5E9047200F088F8B0B97100B4F92C029D
:103AE000B1F5803FB4BF89B24FF6FF710DF082FB94
:103AF000B4F82C321B1AA4F82C32D5E904321B1866
:103B000042EBE070C5E90430D5E90423C4E982231F
:103B1000D4F884308BB1B4F8CE20B4F898309B1A26
:103B20001BB2002B09DDB4F888100B44013BB3FB3A
:103B3000F1F303FB0123A4F8CE30BDE8F88F00BFFA
:103B4000D0000020014B5870704700BF401100208A
:103B500010B5044604293FD8DFE801F0031A161E09
:103B60003A00204B1B7803F0FF026BB901210AF0E9
:103B7000FFFFB4F898300133A4F8983006F0D6FF70
:103B8000BDE8104008F0EABC042384F83032F5E7C1
:103B9000032384F8303210BDC369D0F85822C0F82E
:103BA0003832934202D028300EF046FCD4F854321A
:103BB0002046E363B4F85032A4F84030D4F85832C9
:103BC000E361D4F85C3263620AF0C3FF0223E0E7EA
:103BD000BDE810400AF0BDBF40F23D313520FDF791
:103BE0001FF800BF40110020014B1879704700BF3B
:103BF000481100200138C0B2032808B504D940F2AA
:103C00000B310620FDF70CF8014B185C08BD00BF16
:103C1000C80903000138C0B2032808B504D940F22E
:103C20000B310620FCF7FCFF014B185C08BD00BF00
:103C3000480A03000138C0B2032808B504D940F28D
:103C40000B310620FCF7ECFF014B185C08BD00BFF0
:103C5000D40A03000138C0B2032808B504D940F2E1
:103C60000B310620FCF7DCFF014B1844007D08BD3A
:103C7000680B0300431E032B08D84B1E032B05D8EB
:103C8000044B9870002059701A7170476FF015003E
:103C9000704700BF5604002010B500880C460E2166
:103CA000FDF768FF90F86C3053B980F86D40FF2342
:103CB00080F8AC3003496430BDE810400DF059B9CC
:103CC00010BD00BF35EC0000F8B58D1F40F67A4CF2
:103CD0000746BDF82460ADB21046BDF81820654512
:103CE0003BD8841FA4B264458CBF00240124254620
:103CF000AFBB1D4F3F796FB15CB96FF450654D1983
:103D0000062D06D86FF450640419062C8CBF0024CD
:103D100001242546FDB1814224D803FB0666B6F591
:103D2000FA7F1FDCA2F10A0340F676449BB2A3425D
:103D300018D80AF0E1FF42F2107300FB06F15A4373
:103D4000B2EB410F0ED9BDF81C50BDF820008542E2
:103D50008CBF002501252846F8BD0024C7E797F849
:103D60008170C8E70025F6E718120020304BF0B547
:103D7000B0F870700C4611461A88B0F86E6085B0C5
:103D800097425D8828BF1746964228BF16461B2ECD
:103D90002ED0B5F5A47F2DD040F6480301AA9D4250
:103DA00028BF1D460AF0D1FFBDF80A309F4228BF48
:103DB0001F46BDF80C30AB42E78028BF2B4623815D
:103DC000BDF806309E4228BF1E46BDF808309D4211
:103DD000668028BF1D46A580FF232370E3881B3B18
:103DE0009BB2E02B08D940F2FF513920FCF718FFB5
:103DF0001B2FCED105B0F0BD63881B3B9BB2E02BDF
:103E000002D940F20161F0E7238940F64812A3F598
:103E1000A4739BB2934202D940F20361E5E7A38801
:103E2000A3F5A4739BB29342E4D940F20561DCE7A9
:103E30001812002010B503210020FDF79BFE044658
:103E400070B90321FDF758FE044620B940F2453110
:103E50003920FCF7E5FE034B93F944100DF09CFF6D
:103E6000204610BD18120020114BF7B59C7E064667
:103E7000DD7E9F8B14B900F0B3FD0446A5B900F0B8
:103E8000AFFD054614B9092003B0F0BD0028FAD0F3
:103E9000304601A98DF804408DF80550ADF8067044
:103EA0000CF027FC0020EFE7002CF1D1EBE700BF7E
:103EB000C416002038B50CF03FFB002501F014F8C3
:103EC0001F4C00F09BFD0DF052F801F0C3FA02F018
:103ED000F5FB01F0F3FA012000F054FD194B1A4AEA
:103EE00029465D831A601B22DD839A80F9221D8496
:103EF0001D76164B22835869154A1B8B22601422AB
:103F0000E06104F124002384A576A580A5750EF058
:103F10003CFF012342F2107204F13A0084F845504C
:103F200084F8243084F83930C4E90A220EF08AFA81
:103F30000022002384F85850C4E9142338BD00BF80
:103F400018120020C416002003021B00480A0300B8
:103F50001B004801044B41F64C521B215A61197455
:103F6000C3E90222FFF7A6BFC416002073B5384D7F
:103F70000446AB6840F8443F0AF06FFD064600F087
:103F800029FD2B7C10F0200FA4F84E6084F84C30F3
:103F9000304B0EBF1B22AA8869881B6814BFA4F887
:103FA0006E10A4F86E20A4F870201BB194F9801054
:103FB0002088984728490B79003B18BF012384F8D3
:103FC0008130264B1B6813B108312088984794F83C
:103FD00081302046002B41F64C5318BF4FF47A73C2
:103FE000E361FFF741FF064648B102212088FDF753
:103FF000D7FD40B340F2C1513920FCF711FE184BF8
:104000001B6813B101462088984704F128000EF080
:1040100013FA6978AB8804F114006A8801910333BC
:10402000297803329BB2009192B204F11801FDF796
:1040300033FE636913B940F2D651DDE7A3691BB9BA
:1040400040F2D751D8E70926304602B070BD00BF14
:10405000C4160020D800002018120020EC00002018
:10406000E80000202DE9F34105460E460DF0D9FE8B
:10407000002800F0AE8028460DF065FF30B1B6F89C
:104080000130013B7F2B01D9122404E028460DF0BA
:104090005EFF20B90C24204602B0BDE8F08128461E
:1040A0000AF027FD0028F5D128460DF05FFE804676
:1040B0000028EFD1284603F0C1FF0028E4D042F2E7
:1040C0001073B6F80170F17828465F430DF027FFB2
:1040D00004213078FDF74EFD044606213078FDF7C7
:1040E00049FD002C77D038B141F665113920FCF735
:1040F00097FD044690F8BD80404E3368002B6CD08D
:10410000403420460EF076F9002866D020460EF0A6
:1041100065F9002861D1B8F1000F08D0384B20466E
:104120001B689847002858D041F67911DEE73549D9
:104130004246336820464969984700284DD041F6E9
:104140007E11D3E728460DF0FEFE40B902210DF1A5
:104150000600FDF799FC064658B90D249BE7284652
:104160000DF003FF0028F1D1274B1B79002BEDD177
:104170008AE7002101F076F8BDF80630284631467E
:1041800033800DF007FF28460DF0EFFEA0B928465A
:104190000DF0F5FE01463046FFF7E8FE0446002824
:1041A0007FF479AF3A4631462846FFF73DF9044699
:1041B00020B141F6AA1199E70121ECE7124BDB6C23
:1041C000002B3FF468AF024606F5A17130469847D0
:1041D00061E742245FE700288BD128460DF0ABFE53
:1041E00001460028AED13A462846FFF71DF904469D
:1041F00000283FF450AF41F6871177E7E400002034
:10420000E0000020C41600201812002008B501F0BC
:10421000E5F80AF02BFE024B83F8440008BD00BF0E
:1042200018120020B0F90020F8B514B292B202F5CD
:10423000A0639BB2B3F5206F36D8B0F902301DB23F
:104240009BB203F5A06189B2B1F5206F2CD802F2C0
:10425000F64140F2BE5089B2814227D803F2F641BE
:1042600089B2814222D8002C4FF00A00C4BF093223
:1042700014B2002DC8BF093394FBF0F4C8BF1DB2BF
:1042800001F0F0F80A2167B2064695FBF1F13846D5
:1042900049B201F0D9F8074B1B684BB1A01B40B2E3
:1042A00008B198470020F8BD3020FCE71120FAE75C
:1042B0001846F8E7DC000020034B5A8802801B7880
:1042C00083700020704700BFC41600207FB583783C
:1042D00006461A2B09D8042B05D9012202FA03F34A
:1042E0002F4A134205D1122519E0292B01D03B2B6F
:1042F000F9D13088B0F5706FF5D269460CF06BF9E2
:1043000080B968460AF080FC037803F0FF05ABB97A
:10431000B3784370FF23037068460CF001FE284613
:1043200004B070BD09213088FDF724FC0446A0B319
:1043300002A9B0F8AC010CF04EF908B10C25EEE77B
:104340000821B4F8AE01FDF715FC024620B94FF480
:104350000F613920FCF764FC03781BB994F8C8316D
:10436000032BEBD102A80AF04FFC817D0029E5D197
:1043700094F8F01101F0FF050029DFD1B4F8B01175
:10438000018394F8B4118176127DC276B2780277F7
:1043900084F8F021FF228275C1E70225BFE700BF44
:1043A000200038040188A1F11B039BB2E02B0CD83C
:1043B000428844F24810A2F5A4739BB2834204D809
:1043C000034B002019805A8070471220704700BFAD
:1043D00018120020034B1A885B880280438000205B
:1043E000704700BF1812002038B50478427804F0F6
:1043F0000103857804F0020452EA030101D111207F
:1044000038BDBCB9002DFAD0002B08BF144601E01E
:104410000024254620460AF033FD0028EFD0284628
:104420000AF02EFD0028EAD0054B00209C76DD76B0
:104430009883E5E7002BEBD114461D46EAE700BF61
:10444000C416002013B5008869460CF0C4F818B1F2
:104450000224204602B010BD68460AF026FE00285D
:10446000F6D068460AF0C6FB034668460AF0CCFB65
:10447000827C0AB13A24ECE793F85C2002F0FF0456
:10448000002AF7D193F85320920705D1FF238374B4
:1044900068460CF045FDDCE7024903F154000CF0DE
:1044A00071FDD6E7F31701002DE9FF4107780446B7
:1044B0000E46EF2F04D91226304604B0BDE8F08135
:1044C000B0F80130ADF80C309DF90C209DF80C309F
:1044D000002AF0DB9DF80D209507ECD1D80660D4BA
:1044E000990603F0030259D5002AE4D11D0703D52C
:1044F00003F06703012BDED16378180711D421790B
:10450000E278E07942EA0122617942EA0142A17946
:1045100041EA0021207A41EA00418A42CBD81F2A91
:10452000C9D9627A013A062AC5D8A27A032AC2D822
:1045300013F0040102D1023A012A03D8E27A012AD7
:10454000B9D811B9A27C032AB5D813F01001227D85
:1045500037D0012AAFD1237E012BACD8002940D01F
:104560006378D90703D500F0CFF9002840D06378ED
:10457000227D03F01803082B4AD1022A38D11FFAF2
:1045800087F803214046FDF7F5FA0546002845D097
:104590000AF0AFFA00284DD00C268DE7032AA5D1EA
:1045A00089E713F0600F86D103F00F0203F00703D1
:1045B000052BA1D0931E012B9ED9002A7FF47BAF3F
:1045C0009AE7022A04D103F06F03092B7FF473AF3B
:1045D000A37D013B022B3FF66EAFE37D0F2BBAD9D3
:1045E00069E700F0FDF9820707D4237D022B01D192
:1045F000112661E7A37D022BFAD000F0F1F9430701
:10460000AED4237D032BF3D0A37D032BA8D1EFE7FA
:10461000022AB4D0A37E002BB1D0E9E703214046A3
:10462000FDF76AFA0546002842D0224B93F9441060
:104630000DF0B2FB002138460DF0BCFE28BB284629
:104640000DF076FC21463070E074284603F04EFDF4
:10465000637E0646002B3FF42FAF00287FF42CAF7B
:104660000246E96C6846FDF7F3FB3246E86C01212F
:1046700009F058FFE96C68460422FDF7E9FB324671
:104680003146E86C09F04EFF16E740300DF0B2FEFF
:104690000028D4D0637813F0330F7FF40CAFA77DDC
:1046A00028460DF06CFCFFF7B5FA8742C7D073E7D8
:1046B000072601E71812002030B502798BB00346B7
:1046C000042A5BD84488B4F5804F57D82C48002181
:1046D0001044ADF804108DF80C1090F82220457F9E
:1046E00042F010028DF8211042EA450290F827505E
:1046F00090F82C0042EA850242EAC00202F01F0252
:104700008DF80420BDF80420ADF80D201A888DF82E
:104710001240240A8DF80F20120A8DF811108DF81E
:1047200014108DF810208DF813405A7BD3F8070031
:104730008DF815205A79069003A88DF816209A79DD
:104740008DF81720B3F80B209B7BADF81C208DF85B
:104750001E307F238DF81F3001238DF820308DF817
:1047600022308DF823108DF824108DF825108DF847
:10477000261001A9FFF798FE0BB030BD1220FBE711
:10478000480A030013B50378044653B1002301A877
:10479000019306F075FD019B9B0702D00C2002B02F
:1047A00010BD22780020014B1A71F8E71812002082
:1047B0000278034672B1427862B142881A2A09D956
:1047C00082881A2A06D90068034A106000209B8854
:1047D0009380704712207047C416002002680020A2
:1047E000014B9A60704700BFC41600200378A3F104
:1047F0000A02112A9BBF024A00201220137470473C
:10480000C4160020014B18760020704718120020B3
:10481000014B58760020704718120020024B1B688D
:1048200003B1184711207047D400002008B50520B7
:1048300000F0B4F805F06CF9014B024ADA6408BDE7
:10484000181200206D3D000008B503F0E1FAFEF7F4
:10485000E1FE0248BDE8084003F0C4BA741200202B
:1048600008B50BF067FE064800F58471FDF768FE99
:10487000022009F0D4FD0020BDE8084009F0CFBDBA
:104880007412002008B50122064B83F80A2203F0B7
:10489000C7FA04F0F7FAFFF7E3FFBDE8084001F0BC
:1048A0000BB800BF7412002010B5064C064904F581
:1048B00003700BF09FFB04F504700449BDE8104041
:1048C0000BF098BB74120020F0000020F8000020CC
:1048D00010B5094C094904F503700BF08BFB04F586
:1048E000047007490BF086FB04F505700549BDE827
:1048F00010400BF07FBB00BF7412002008010020A5
:104900001001002000010020014B93F80A027047BB
:104910007412002038B5094C0D4600F0C7FFD4F8DA
:104920000C02C4F804510BF05DFBFFF713FB01F020
:10493000F7F8012384F8183238BD00BF7412002044
:10494000014B93F8180270477412002010B50C4CFC
:10495000D4F810020BF046FBD4F814020BF042FB23
:10496000FFF7A8FA202000F027F82F2000F024F805
:10497000262000F021F8002384F8183210BD00BF73
:1049800074120020014B83F8190270477412002042
:10499000014B93F81902704774120020C2080549B0
:1049A000012300F0070003FA00F08B5C18438854E1
:1049B000704700BF18000020C208054900F007003A
:1049C00001238340885C20EA03008854704700BFBD
:1049D00018000020014BD3E90001704718000020A7
:1049E000054B1868C0F3C022C0F30020400040EA25
:1049F000820040F0010070471800002008B50DF05B
:104A0000BCFD0023074A32F82310814205D302EB94
:104A100083039B78044A137008BD01330C2BF2D139
:104A20000023F7E7A40A03008E140020024B187835
:104A3000072828BF072070478E14002010B544684F
:104A4000238884F8AD11A4F8AE3194F87C00FFF708
:104A5000F1F884F8B00194F87D00FFF7EBF8054910
:104A600084F8B10104F5D2700CF08CFA002384F8BC
:104A70004C3110BD79000100406807490388A0F857
:104A8000A03190F8743080F8A23190F8753000F2BF
:104A9000971003730CF070BA8F000100064B0022D0
:104AA00083F850204FF6FF72A3F85220A3F8542049
:104AB000A3F85620704700BF90140020064BB3F8AF
:104AC0005220824201BF002283F850204FF6FF722D
:104AD000A3F85220704700BF90140020014BA3F8A8
:104AE0005400704790140020094A03464FF6FF71A6
:104AF000B2F85200884206D192F85010012905D030
:104B000001201A607047002018607047002070472D
:104B100090140020074B93F85020012A1BBF01205E
:104B2000B3F85420002083F8500018BFA3F8522097
:104B3000704700BF90140020014BA3F85600704747
:104B400090140020074B0246B3F85610B3F85200F9
:104B5000884205D193F8500018B1012013607047C6
:104B600000207047901400200A4BB3F85210B3F89D
:104B70005620914201D0002070474FF6FF72A3F8F3
:104B8000522093F85020002AF5D00022012083F80B
:104B90005020704790140020064BB3F85210B3F821
:104BA0005620914203BF93F85000B0FA80F04009BC
:104BB000012070479014002050B90A4A0120134682
:104BC00003F8010B0868C2F801008A889A807047D0
:104BD000012805D1034B0A68D8719A608A889A81A6
:104BE000704700BFE814002048B90A4B187880B11C
:104BF000D3F80120B3F805300A608B807047012894
:104C000006D1044BD87920B19A689B890A60F4E7F1
:104C100000207047E814002020B9054B187800F0F8
:104C20000100704701280ABF014B0020D879F6E740
:104C3000E8140020F7B58B8800228DF80600ADF847
:104C4000043008680B4B8DF8072001461C7803F5EB
:104C5000AC73019DD0B2844201D8082007E0D3E9AB
:104C6000007601320833AE4208BF8F42F2D103B062
:104C7000F0BD00BFF8140020084B0146002230B5FB
:104C80005C7803F58173D0B2844201D8082004E037
:104C900013F8015B01328D42F5D130BDF8140020CC
:104CA000F8B52D4C63782218013B92F80251DBB223
:104CB0008342637030D01A010101961C8F1C264478
:104CC000274406F1100C56F804EB664547F804EB50
:104CD000F9D1823282312244214402F1100652F885
:104CE000047BB24241F8047BF9D1E118221891F813
:104CF000026182F8026106267343704303F58573EF
:104D000000F58570E618E35827182350B388BB8058
:104D100091F83A3182F83A312846FFF7ADFF08287A
:104D200018D12378013BDBB29D42237012D02B3384
:104D300005F12B0204EBC30304EBC20293E803006A
:104D400082E803002078FFF797FF08281CBF24188B
:104D500084F80251F8BD00BFF8140020F0B5254DCD
:104D600089B095F8984105F29911684622460DF0F0
:104D7000E1FF214668460BF0FEFB0446B8B300EBAA
:104D8000400102A8C9B2FCF799FB601E95F8A16129
:104D90000124C0B295F8982105E0731CB3FBF2F131
:104DA00002FB1133DEB206F120030DEB030111F813
:104DB000203C002BF1D100EB400201F8204C06EB27
:104DC000460320322B446A4412F8187C83F8A271FF
:104DD00012F8177C12F8162C83F8A37183F8A4211B
:104DE0000138AB19C0B283F89941FF28D2D109B07C
:104DF000F0BD00BFF814002070B5064688B00C4620
:104E0000002A4FD02A4A92F8A131D01890F899116F
:104E100021B94FF480712820FBF702FF03EB430117
:104E20000133114491F8A251E57091F8A35191F822
:104E3000A41125716171002180F8991192F89811DF
:104E4000B3FBF1F001FB103382F8A13192F8C231CB
:104E500023B9184902F5DD700CF091F865790D223F
:104E60000021684605F03F0545F0400565710DF0ED
:104E70008CFFE37804AA69468DF80F303046237919
:104E80008DF80D508DF80E3004230DF058FE9DF86E
:104E90001F3023709DF81E3063709DF81D30A37085
:104EA00008B070BD03216018FCF708FBD6E700BF0F
:104EB000F81400205D4D0000044B5A78824286BFF2
:104EC0001B1893F84A010020704700BFF814002017
:104ED000044B5A78824286BF1B1893F84201002087
:104EE000704700BFF8140020064B00224FF4617198
:104EF0001A8083F8C32183F8C421A3F8C61183F86C
:104F0000C2217047F8140020014B83F8C401704798
:104F1000F81400202DE9F047824689461746984646
:104F2000FFF788FE08280546064603D0FFF7A4FED3
:104F3000082863D1334C6378072B61D8082D18D12A
:104F40002678731C072E237003D96B212820FBF7CA
:104F500067FE06F12B03D9F80000DAB204EBC303B5
:104F600044F8320004EBC201B9F804208A8083F8C7
:104F700006A0657807F110026B1C290163704B1CB9
:104F8000234412F8010DBA4203F8010FF9D181311F
:104F900008F11003214413F8012D984501F8012F61
:104FA000F9D12544102140460BF043FB102185F830
:104FB000420138460BF03DFB002385F8026166781C
:104FC00085F84A0185F83A3131460F480BF0D3FA9B
:104FD000054631460D480BF0CEFA012D03D80028C6
:104FE00018BF0135EDB284F898510025284684F8A1
:104FF000A151FFF7B3FE2846BDE8F0871220FBE77A
:105000000720F9E7F81400203A1600204216002085
:10501000064B10B55878013840B2002800DA10BDB0
:10502000C4B22046FFF73CFE601EF5E7F8140020EE
:10503000014B83F8C3017047F8140020014B93F82B
:10504000C3017047F8140020431E4AF2B7129BB206
:1050500093429DBF024BA3F8C60101200020704778
:10506000F8140020014BB3F8C6017047F814002073
:105070000A4B30B55C7884420ED9184490F802018E
:105080002B3003EBC004A5790D7053F8300010608D
:105090000120A388938030BD0020FCE7F814002095
:1050A0000246074810B590F8C34124B1417821B1B8
:1050B000023004F0E9FD204610BD0C46FBE700BFBE
:1050C000F81400202DE9F74F2F4C9A468046894668
:1050D0006378834256D9231893F8425185F001052D
:1050E000F9B193F84A31E3B945F002070135BAF155
:1050F000000F18D1FA070AD5062104EB0810524612
:1051000001FB0841823001F58571FFF775FEBB0791
:1051100034D504EB0810524649460230FFF76CFEC6
:105120002CE02F46E3E794F8A1614FF0010B002D2E
:10513000E0D0A31993F89911019399B90092DAB1CB
:1051400000F0BEFC019B06EB4601009A4FEA102CD2
:1051500083F899B1214481F8A201000C81F8A3C120
:1051600081F8A401013694F89831013DB6FBF3F1C2
:1051700003FB1166F6B2DAE747F00407384603B0DE
:10518000BDE8F08F0027F9E7F8140020074B5A78A4
:10519000824209D91A1892F842212AB9062202FB42
:1051A000003000F58570704700207047F81400202B
:1051B000064B5A78824281BF1B1893F83A01B0FA25
:1051C00080F0400998BF0020704700BFF81400200D
:1051D000F8B50E4607460621154630460BF029FA6B
:1051E000044640B10A482946427800F59D700DF00A
:1051F000CCFD2046F8BD314638460BF0D8F90828DA
:105200001FBF034B0124C01880F83A51F1E700BFDB
:10521000F814002030B5002442F21075A0F8424086
:10522000B0F846404C43B4FBF2F4A0F84640541E9C
:1052300005FB0343B3FBF2F3A0F84430084BB3FB88
:10524000F2F30133A0F84A30838F05FB0344436B2C
:105250005943B4FBF2F4B1FBF2F28463426330BD14
:10526000005A620270B504460D4649BB4FF44272C3
:105270000DF08BFD012384F8F85084F8A6306FF010
:10528000360384F8F95084F8F330042384F8F430BA
:105290006FF03B0384F8F5306F2384F8F6306FF03D
:1052A0003F0384F8F7302B2384F8F230FE2384F890
:1052B00032317F2384F89D30202384F85C3270BD26
:1052C000012917D10023A0F81C3280F813320D4BAE
:1052D000C26913441146B3FBF2F3C0F8C83040F67C
:1052E000B833A0F8CC30C38C04F19000BDE8704016
:1052F000FFF790BF0229E2D1B0F8E232D0F8DC2209
:10530000C169F1E77FC3C90170B504460D4649BBC9
:105310004FF42A720DF039FD012384F8F85084F817
:10532000A6306FF0360384F8F95084F8F330042384
:1053300084F8F4306FF03B0384F8F5306F2384F881
:10534000F6306FF03F0384F8F7302B2384F8F23007
:10535000FE2384F832317F2384F89D30202384F8A3
:10536000313270BD012912D1C2690D4B114613446F
:10537000B3FBF2F3C0F8C83040F6B833A0F8CC3035
:10538000C38C04F19000BDE87040FFF743BF0229D1
:10539000E7D1B0F85E32D0F85822C169F1E700BF1A
:1053A0007FC3C901034B80F880101B680BB10088D4
:1053B0001847704718010020074B93F90030184434
:1053C000142804DC10F17F0F03DB40B27047142077
:1053D00070476FF07E007047C0160020084B1B78A6
:1053E0005B425BB21844142804DC10F17F0F03DB2E
:1053F00040B27047142070476FF07E00704700BFC6
:10540000C01600207F2307B50DF107008DF8073087
:1054100005F0A4FC9DF9073068B10A4A5078404273
:1054200040B21844142808DC10F17F0F07DB40B2AB
:1054300003B05DF804FB1846FAE71420F8E76FF0B4
:105440007E00F5E7C0160020014B187059707047B8
:10545000C0160020024B00221A705A70704700BF1D
:10546000C0160020014B93F900007047C0160020C1
:10547000014B93F901007047C0160020054B1B78C3
:1054800033B9054B1A681B7902600371012070471C
:1054900000207047C216002020000020054BFF228C
:1054A0001A70054A016811600179117100221A70A1
:1054B000704700BFC216002020000020064B07B531
:1054C00018681B79009068468DF80430FFF7E6FFF6
:1054D00003B05DF804FB00BF11730300034640787E
:1054E00048B1DB783A2B05D8034AD35C1B1A5842E3
:1054F0005841704701207047D80A03003A2908B57F
:10550000C17003D8064B5B5C437008BDFF2904D013
:105510004FF489612A20FBF783FB0123F4E700BFE6
:10552000D80A03002DE9F04385B089461446984611
:1055300002A90BF050F8054600283DD1039E34B96E
:10554000012486F8A540204605B0BDE8F0837769C0
:105550002146384608F09FFD014678B3194B5B8819
:10556000A3422DD301AA384608F0D7FE96F8A530FD
:105570000198002B0CBF494602210BF0BCFB01989F
:105580002246414603300DF0D5FB2146384608F04F
:10559000C7FD044618B97A212B20FBF741FB9DF883
:1055A00008302BB102A80BF0BBFC039BA3F80A52F6
:1055B000002386F8A530C6E70124C4E70446C2E705
:1055C0002C46C0E7C4160020024B987FC04300F071
:1055D00001007047C4160020034B987F80F0020042
:1055E000C0F34000704700BFC41600207FB50546D9
:1055F0000C4621B940F215111020FBF711FB03886E
:105600008B8000234B728669304608F078FE014695
:1056100010B94FF48F71EFE701AA304608F07DFE14
:10562000E08010B940F22311E6E7FB2802D940F2EE
:105630002511E1E701980BF066FB012801D0022853
:1056400005D12072206828B94FF49E71D4E740F24A
:105650003511D1E70199E28803310DF06BFB30463B
:1056600008F063FE10B940F24111C5E70021304651
:1056700008F0B9FD10B94FF4A371BDE70A4BDA7F0A
:1056800082B11A8C02A92888013A1A840AF0A3FF71
:1056900010B140F24F11AFE7039AB2F8B6300133C0
:1056A000A2F8B63004B070BDC416002010B521B900
:1056B00040F25B211020FBF7B3FA4A600B72EFF364
:1056C000108472B6031D0B6042681AB1127A012A67
:1056D00008BF036003681960016004B962B6034B38
:1056E000BDE81040587807F027BE00BFE81600203C
:1056F0002DE9F34706460D464FF005080027DFF871
:1057000050912B693BB11B7A2BB12C699CB90020BD
:1057100002B0BDE8F0876C68237A012BF7D0EFF375
:10572000108372B66A6812686A6003B962B6237A37
:10573000002BE6D02C6194F808A05FFA8AFA84F86E
:1057400008800AF1FF330B2B74D8DFE803F07006F2
:1057500012266D3D4C3D3D3D3D60636823B940F2EE
:10576000C7111020FBF75CFA314620469847042009
:105770001BE0636813B94FF4E871F2E73146204645
:1057800098470346ADF80400C0B2C3F30723012BCA
:1057900053D0022B09D12F6151E0636813B94FF444
:1057A000ED71DEE7204698470020EFF3108372B6D4
:1057B000227A052AD1B201D0002944D127722F6163
:1057C000002B3CD162B63AE0D9F80030002BEBD088
:1057D0005246314660689847BAF10A0FC7D1002394
:1057E0002B61042094E763680BB9DA21B9E70D2235
:1057F00000243270012219885869A6F80310214646
:10580000B2707271B47108F0EEFC2C61E9E7606867
:1058100010B940F20521A4E70E4B31461B689847AA
:10582000002302202B6173E740F20E2199E740F23A
:10583000112196E74FF4057193E7032323720028A3
:105840003FF45FAF64E7002B7FF45BAF62B658E7CD
:10585000200100201C01002070B5134C14260021EB
:10586000231D324618460DF090FA03460125257493
:1058700004333246002104F11800C4E901330DF06D
:1058800084FA84F8245004F11C03C4E9063300238D
:10589000E362236384F83430C4F83530C4F8393017
:1058A00084F83D3070BD00BFE8160020014B5870F1
:1058B000FFF7D2BFE8160020014B024A1A6070477A
:1058C0001C010020ED55000038B50B4D044605F1D4
:1058D0001801FFF70DFF70B9AB681B7A0C2B04D1D0
:1058E000064BDA7F0AB11B8C2BB120460449BDE878
:1058F0003840FFF7FDBE38BDE8160020C416002072
:10590000EC160020134610B5027A22B14FF42D7127
:105910001020FBF785F90A4601460248BDE8104011
:10592000FFF7C4BEEC160020044890F834301BB9D1
:1059300003492C300BF01DBB704700BFE816002058
:10594000650F01000A4610B5037A23B14FF42F7199
:105950001020FBF765F9014607230248BDE8104017
:10596000FFF7A4BE001700201346027A0AB10372A3
:1059700070470A4601460148FFF798BEEC16002022
:105980001B234FF01B128384038482618382C260D5
:10599000038541B94FF4A473094AC3844384C261A7
:1059A000C382026170474FF429634FF4A472C38429
:1059B000438403F12963C282C3610361704700BF5E
:1059C0004801480103460846B3F86820B3F85C1064
:1059D000B3F852C08A42F0B493F87D4028BF0A461B
:1059E000B3F86060B3F86A10033CB3F85870B14282
:1059F000E4B2B3F8565028BF3146012CA3F8522028
:105A00008BBFB3F85A604FF429660C464FF42964F3
:105A10009742A3F8564038BF17468E4238BF0E460D
:105A20009445A3F85870A3F85A6026D12C1B18BFD0
:105A30000124B3F86420B3F85E50B3F85060954287
:105A4000B3F8541028BF154693F87C20033A012A76
:105A500015D9B3F86220B3F86670BA4228BF3A4647
:105A6000AE42A3F85050A3F8542002D1914200D185
:105A700044B10549F0BC0BF085BA0124D9E74FF4D5
:105A80002962EDE7F0BC70478B0F01000B8BA2F889
:105A900009001046A2F80B304B8BA2F80D308B8B0F
:105AA000A2F80F30CB8B0249A2F811300BF064BA88
:105AB000ED0F0100014B1878704700BF261700203A
:105AC000094AD2E90003434083EAB01181EA432145
:105AD0004FEAF34311605360044B58434FEAF060C0
:105AE00000EB8000704700BF28170020BB79379E6D
:105AF000094AD2E90003434083EAB01181EA432115
:105B00004FEAF34311605360044B58434FEAF0608F
:105B100000EB8000704700BF28000020BB79379E53
:105B200010B50A4C08210948FBF7C8FCD4E900234A
:105B30001343F7D0064CFFF7DBFF2060FFF7D8FFD9
:105B4000236860600343F6D010BD00BF280000202A
:105B500028170020174B184A9A60184A5A60184AAA
:105B60001A60184A9A62184ADA62184ADA60184AC1
:105B70009A61184A1A63184A1A62184ADA64184A6B
:105B80009A64184A5A62184B184A9A60184A5A621C
:105B9000184ADA62184A1A61184A5A61184A9A6110
:105BA000184A1A63184A9A64184ADA64184A9A63B7
:105BB000704700BF24010020F112010027130100EB
:105BC0009F130100A3150100031601006962000084
:105BD000191601000D650000596300002B17010024
:105BE00053170100D16300001002002013130100BD
:105BF000D71601003B160100DF1501005F160100FA
:105C0000F962000011180100B11701009517010099
:105C1000BD160100044B054A5A65054B054A1A6535
:105C2000054A5A65704700BF240100209B140100FB
:105C3000100200208114010023150100054B064AC3
:105C40009A65064A1A66064B064A9A65064ADA6556
:105C5000704700BF240100204B020100F302010045
:105C60001002002013010100F90401003A2A73B563
:105C700005460C463ED83A2A3FD8DFE812F04300EA
:105C800084008E009A00B20098009800C100C30002
:105C9000C90098009800CE00D900C3003E003E0025
:105CA000DD0098009800F900F900000107011301D8
